:1000000071C000008EC000008CC000008AC00000DB
:1000100088C000005DC1000036C1000082C0000041
:1000200080C000007EC000007CC000007AC00000DC
:1000300078C0000076C0000074C0000072C00000EC
:1000400070C000006EC000006CC000006AC00000FC
:1000500068C0000066C0000064C0000062C000000C
:1000600060C000005EC000005CC000005AC000001C
:1000700058C0000056C0000054C0000052C000002C
:1000800050C000004EC000004CC000004AC000003C
:1000900048C0000046C0000044C0000042C000004C
:1000A00040C000003EC000003CC000003AC000005C
:1000B00038C0000036C0000034C0000032C000006C
:1000C00030C000002EC000002CC0000078C400002A
:1000D00028C0000026C0000024C0000022C000008C
:1000E00020C0000011241FBECFEFD1E2DEBFCDBF84
:1000F00000E00CBF12E0A0E0B2E0E4E5F0E100E0D7
:100100000BBF02C007900D92A431B107D9F722E0CE
:10011000A4E1B2E001C01D92A83BB207E1F7BFD550
:1001200097C76ECF81B18F6081B982B1807F82B96C
:100130000895EAE0F1E0808188618083EBE0F1E0FE
:1001400080818861808308958DB18F7C8DB98EB157
:1001500080638EB90895E1E2F1E010828FEF809321
:10016000250191E0909324011092290180932801A8
:1001700010922B0180932A01A0E2B1E08C91806A59
:100180008C938C918F7A8C938C9181608C938C91D1
:100190008D7F8C9380818860808380818F7E808337
:1001A00080818360808380818B7F808308958093AA
:1001B000280160932A010895F8948DB380638DBB64
:1001C000EAE6F0E080818A60808380818A7F808394
:1001D0007894089582B1867F82B982B1866082B9AF
:1001E000089582B1857F82B982B1856082B9089510
:1001F00082B18A7F82B982B18A6082B9089582B160
:10020000807F82B908951092140210921502109204
:1002100016021092170210921802109219021092F0
:100220001A0210921B02BC0180E090E00FD628E475
:1002300031EE42E850E476D5DDD5672B09F0FFCFEB
:10024000DECF089510921402109215021092160239
:1002500010921702109218021092190210921A02AC
:1002600010921B02BC0180E090E0F0D525EE30ED4D
:100270004AEA50E457D5BED5672B682B692B09F0A5
:10028000FFCFBDCF08951F920F920FB60F9211248A
:100290008F939F93AF93BF93809114029091150217
:1002A000A0911602B09117020196A11DB11D809375
:1002B000140290931502A0931602B0931702BF91F7
:1002C000AF919F918F910F900FBE0F901F90189537
:1002D0001F920F920FB60F9211248F939F93AF939B
:1002E000BF938091180290911902A0911A02B091C7
:1002F0001B020196A11DB11D809318029093190253
:10030000A0931A02B0931B02BF91AF919F918F915E
:100310000F900FBE0F901F901895CF93DF93EC01B5
:1003200088EC8093280184ED80932A0153DFCE016D
:1003300089DFDF91CF910895CF93DF93EC0188ECB3
:100340008093280184ED80932A014BDFCE015BDF8F
:10035000DF91CF910895CF93DF93EC0188EC8093E8
:10036000280184ED80932A0143DFCE014CDFDF9129
:10037000CF9108953B9A43980895EAE7F0E0808191
:1003800086688083808186788083EBE7F0E08081D7
:10039000807B8083ECE7F0E08081807680838081C1
:1003A0008064808380818062808380B7806880BF22
:1003B0000895883028F0EBE7F0E090819860908312
:1003C000ECE7F0E090818770892B8083EAE7F0E02A
:1003D000808180648083808184FFFDCF809179005B
:1003E000EAE7F0E0908190619083EBE7F0E09081A4
:1003F000977F9083ECE7F0E09081907E9083089562
:1004000010BA11BA1092070110920801089587B12D
:10041000876087B987B1806F87B988B1887F88B9CD
:1004200088B18F7088B9089586E69EE00197F1F74C
:1004300000004098419880E388B9429AEFEFF7E4D2
:100440003197F1F700C000004298E6E6FEE03197F0
:10045000F1F700004098419888B9429AEFEFF7E42D
:100460003197F1F700C000004298E6E6FEE03197D0
:10047000F1F700004098419888B9429A8FEF97E4CD
:100480000197F1F700C000004298E6E6FEE03197E0
:10049000F1F700004098419880E288B9429A8FEFC6
:1004A00097E40197F1F700C000004298089598B1D1
:1004B0009F7098B998B1282F207F922B98B94098B7
:1004C0004198429AEFEFF7E43197F1F700C000004E
:1004D000429898B19F7098B998B18295807F892B86
:1004E00088B940984198429A8FEF97E40197F1F7C5
:1004F00000C000004298089597DF86E69EE00197CD
:10050000F1F7000088E2D3DF81E0D1DF86E0CFDFC2
:100510008EE0CDDF80E8CBCF089580E8C8CF089586
:10052000823069F018F4813031F00895833059F049
:10053000843069F008958FE7860FB9CF08958FEB67
:10054000860FB5CF089583E9860FB1CF089583ED67
:10055000860FADCF0895CF93C42FE2DF88B18F709F
:1005600088B988B19C2F907F892B88B9409A41988F
:10057000429A8FEF97E40197F1F700C0000042988C
:1005800088B18F7088B988B1C295C07FC82BC8B9AF
:10059000409A4198429A8FEF97E40197F1F700C093
:1005A00000004298CF9108950F931F93CF93DF934C
:1005B000D82FC62FFA014081442361F08F010F5FCD
:1005C0001F4F6C2F8D2FC7DFCF5FF80141918F0137
:1005D0004111F7CFDF91CF911F910F910895EF92C5
:1005E000FF920F931F93CF93DF93D82FC62F7A01DB
:1005F000890196DFFF204CF4F194E194F10845E085
:1006000052E06C2F8D2FD0DFCF5FDD2311F0C111B1
:1006100002C083DF03C06C2F8D2F82DF05301105F0
:1006200009F0ADC0C70160E177E29ED4AB01405D47
:100630005F4F50932102409320026C2F8D2F8BDF50
:10064000CF5FC70168EE73E08FD4AB0170932302D4
:10065000609322029B01ADECBCECB5D496958795D6
:1006600096958795969587959C01220F331F880F45
:10067000991F880F991F880F991F820F931F481B7E
:10068000590B405D5F4F50932B0240932A026C2F11
:100690008D2F61DFCF5F03C00330110559F5C7010E
:1006A00064E670E061D4AB01709323026093220290
:1006B0009B01ADECBCEC87D4969587959695879574
:1006C000969587959C01220F331F880F991F880FDD
:1006D000991F880F991F820F931F481B590B405D6C
:1006E0005F4F50932702409326026C2F8D2F33DFEC
:1006F000CF5F04C00230110509F046C0C7016AE0AF
:1007000070E032D4AB0170932302609322029B010C
:10071000ADECBCEC58D496958795969587959695B3
:1007200087959C01220F331F880F991F880F991FEF
:10073000880F991F820F931F481B590B405D5F4F15
:1007400050932502409324026C2F8D2F04DFCF5F3E
:10075000C7016AE070E008D4AC01405D5F4F509380
:100760002902409328026C2F8D2FF5DECF5F0630D3
:10077000110574F045E46C2F8D2FEDDE09C00430B7
:10078000110509F089CF5DCF0130110581F7E0CF68
:10079000DF91CF911F910F91FF90EF900895F89402
:1007A0009C0140E050E060E070E18EE090E0EFD32B
:1007B000215031093093D5002093D40088E98093EB
:1007C000D10086E08093C20078940895E0EDF0E0D7
:1007D00080818823ECF78091D6000895E0EDF0E069
:1007E000908195FFFDCF8093D60008950F931F93BE
:1007F000CF93DF938C01FB01EA01A881B9819C9121
:100800009F3331F0E901A881B9817C917F3361F494
:100810008CE292E0FA01918380838DE292E0D9012B
:100820008D939C9388E763C0E8016881961313C099
:100830008081781798F07083FA0180819181029607
:1008400091838083D9018D919C91119702968D930C
:100850009C938EE44CC0961758F141C08081781368
:1008600014C0E8019883E901A881B9818C91808343
:10087000FA01808191810296918380838881998198
:1008800002969983888385E432C0961761F126C069
:100890007083DA018D919C91119702968D939C93B0
:1008A000E9018881998102969983888383E51FC035
:1008B0008081781313C09883E901A881B9818C9154
:1008C0008083FA018081918102969183808388815F
:1008D000998102969983888387E509C008C0808141
:1008E0007813FCCFBECF80818717C0F3D1CFDF91C3
:1008F000CF911F910F910895FC0180818E3419F4DE
:10090000653491F40EC0853419F46335B1F409C02F
:10091000833519F4673571F404C0873589F56E3471
:1009200031F4608382E50895673561F408C063356A
:1009300091F405C0653461F402C06E3431F4608313
:100940008CE408956E3461F408C06534A1F405C0E8
:10095000633551F402C0673551F4608386E408952D
:10096000633559F083E508956E3469F406C0653443
:1009700021F083E50895673529F4608384E50895BF
:1009800083E5089583E50895E0EBF2E08091AF02FE
:1009900080838091B60281838091040282831092C9
:1009A0001C02E0E0F0E0E055FD4F808117DFE091B0
:1009B0001C02EF5FE0931C02E330A0F308951F9246
:1009C0000F920FB60F9211240BB60F922F933F93F5
:1009D0004F935F936F937F938F939F93AF93BF9347
:1009E000CF93EF93FF938091D6008093B50283322B
:1009F00059F18432A9F5EADE8093AF02E7DE8093F5
:100A0000B60210921C02C0E0E1DEEC2FF0E0E45DE3
:100A1000FD4F8083E0911C02AE2FB0E0A45DBD4F7E
:100A20008C91853231F0C1E0CE0FC0931C02C238E8
:100A300058F3809104028093B40281E090E0909397
:100A40001F0280931E020CC0E0EBF2E08091AF0227
:100A500080838091B60281838091B402828394DF87
:100A6000FF91EF91CF91BF91AF919F918F917F9126
:100A70006F915F914F913F912F910F900BBE0F900F
:100A80000FBE0F901F901895CF93DF93C62FD42FD2
:100A90001092B7021092B302833308F4E0C06333BC
:100AA00008F4DDC0433308F4DAC060E080E07FDBA7
:100AB00081E08093B7028093B30207C08BDB64EBC5
:100AC00080E575DB81E08093B702D233B0F080918E
:100AD000B3028111D1C08091B7028111D5C080913C
:100AE0001E0290911F02892B09F4D2C073DB60E5CE
:100AF00084EB5DDB81E08093B702C233B0F080917C
:100B0000B302811117C08091B7028111A7C08091F3
:100B10001E0290911F02892B09F4A0C05BDB64EDDB
:100B200088EC45DB81E08093B7028091B302882393
:100B300009F494C080911E0290911F02892B09F440
:100B40008DC047E052E061E081E02EDD4091AF02D0
:100B500064E081E000DD4CE265E081E0FCDC409196
:100B6000B60266E081E0F7DC4BE052E068E081E04D
:100B70001BDDE0910202F091030240816BE081E015
:100B8000EADC4CE26CE081E0E6DCE0910002F0910E
:100B9000010240816DE081E0DEDC4FE052E061E087
:100BA00082E002DD4091040264E082E0D4DC20E0D7
:100BB00032E042E052E066EB72E08FEA92E016DE4D
:100BC0008093B402E1DE6091B402683731F4109290
:100BD0001F0210921E0288E75FC084E092E08CDE64
:100BE0008093AE028091B402809304022FEF8FE3D2
:100BF0009BE0215080409040E1F700C000008091D0
:100C0000AE02823591F028F4863441F08C34A1F0A4
:100C100025C08335F9F08435B1F020C064ED88EC4F
:100C2000C6DA85E590E079DB19C081E490E075DBF8
:100C30008AE590E090DB12C081E490E06EDB8AE50B
:100C400090E07ADB0BC081E490E067DB84EB90E01E
:100C500073DB04C047E466E081E07DDC1DC08233C5
:100C600038F080911E0290911F02892B49F026CF07
:100C7000D23308F442CF2FCFC23308F05BCF55CF29
:100C8000D23308F02CCF39CFC23308F44ECFE6CFA1
:100C9000C23308F03CCF49CFDF91CF91089580E86F
:100CA00095E27DDDB4DB28DC3DDA43DA4DDA84DA27
:100CB000A7DB63DB50DA68EC88EC79DA5BDB83E096
:100CC00078DBD82F82E075DB182F81E072DB082FEC
:100CD00086E06FDBC82F482F50E023E030E06EE065
:100CE00082E07DDCC53638F0402F612F8D2FCCDEC1
:100CF00010921D020DC083DA80911D02811104C083
:100D000043DE81E080931D024FE46CE082E023DC4F
:100D100040911E0250911F0221E030E06FE081E01F
:100D20005EDCCDCF0CD0E6C0DED040F0D5D030F0C8
:100D300021F45F3F19F0C7C0511110C1CAC0EBD0F8
:100D400098F39923C9F35523B1F3951B550BBB2792
:100D5000AA2762177307840738F09F5F5F4F220F3F
:100D6000331F441FAA1FA9F333D00E2E3AF0E0E838
:100D700030D091505040E695001CCAF729D0FE2F84
:100D800027D0660F771F881FBB1F26173707480716
:100D9000AB07B0E809F0BB0B802DBF01FF279358CC
:100DA0005F4F2AF09E3F510568F08DC0D7C05F3F6E
:100DB000ECF3983EDCF3869577956795B795F795B4
:100DC0009F5FC9F7880F911D9695879597F90895AC
:100DD000E1E0660F771F881FBB1F62177307840748
:100DE000BA0720F0621B730B840BBA0BEE1F88F757
:100DF000E095089598D088F09F5790F0B92F9927E3
:100E0000B751A0F0D1F0660F771F881F991F1AF015
:100E1000BA95C9F712C0B13081F09FD0B1E0089502
:100E20009CC0672F782F8827B85F39F0B93FCCF383
:100E3000869577956795B395D9F73EF4909580950B
:100E4000709561957F4F8F4F9F4F0895E89409C02B
:100E500097FB3EF490958095709561957F4F8F4FED
:100E60009F4F9923A9F0F92F96E9BB279395F69503
:100E7000879577956795B795F111F8CFFAF4BB0F81
:100E800011F460FF1BC06F5F7F4F8F4F9F4F16C0E5
:100E9000882311F096E911C0772321F09EE8872F6F
:100EA000762F05C0662371F096E8862F70E060E02B
:100EB0002AF09A95660F771F881FDAF7880F9695A4
:100EC000879597F9089597F99F6780E870E060E04B
:100ED00008959FEF80EC089500240A9416161706D3
:100EE00018060906089500240A941216130614061B
:100EF00005060895092E0394000C11F4882352F07E
:100F0000BB0F40F4BF2B11F460FF04C06F5F7F4F35
:100F10008F4F9F4F089557FD9058440F551F59F01C
:100F20005F3F71F04795880F97FB991F61F09F3FD6
:100F300079F087950895121613061406551FF2CFFF
:100F40004695F1DF08C0161617061806991FF1CF4F
:100F500086957105610508940895E894BB27662776
:100F60007727CB0197F9089597FB072E16F4009485
:100F700006D077FD08D036D007FC05D03EF490951A
:100F800081959F4F0895709561957F4F0895052E27
:100F900097FB16F400940FD057FD05D037D007FC0F
:100FA00002D046F408C050954095309521953F4FAA
:100FB0004F4F5F4F089590958095709561957F4F45
:100FC0008F4F9F4F0895A29FB001B39FC001A39F71
:100FD000700D811D1124911DB29F700D811D112472
:100FE000911D0895AA1BBB1B51E107C0AA1FBB1F7F
:100FF000A617B70710F0A61BB70B881F991F5A95A5
:10100000A9F780959095BC01CD010895A1E21A2E13
:10101000AA1BBB1BFD010DC0AA1FBB1FEE1FFF1F9C
:10102000A217B307E407F50720F0A21BB30BE40BEC
:10103000F50B661F771F881F991F1A9469F7609533
:101040007095809590959B01AC01BD01CF010895ED
:04105000F894FFCF42
:101054002D022C024E2D0043503A004E503A0043CC
:041064004F3A0000FF
:00000001FF
